:10095C00526573756C743A005365743A0048697348
:10096C00746F72793A002020202020202020202033
:10097C0053656E64696E672E2E2E00426C7565741D
:10098C006F6F746800202020002020202057656C99
:10099C00636F6D65212020202020205072657373B9
:0A09AC0020746F2053544152540090
:10046C00120894200A0302051F7A09795C120ADF2C
:10047C0012065FC20A7B007A007936E4FD120AE3A9
:10048C00D3E52F952CE52E952B400FC297C2967F66
:10049C00E87E03120B4AD297D2960525E525B409BE
:1004AC0003752501AD25E4FF120CB6AE2EAF2F7CE3
:1004BC00037DE812033BAD07E52575F003A4240486
:1004CC00FF120CB6AE2EAF2F7C037DE812033B7EE1
:1004DC00007F64CFCDCFCECCCE12033BAD07E5254C
:1004EC0075F003A42405FF120CB6AE2EAF2F7C00C2
:1004FC007D6412033B7E007F0ACFCDCFCECCCE12D3
:10050C00033BAD07E52575F003A42406FF120CB6DA
:10051C0002046F300B7A200F33E5322430F536E5C8
:10052C00332430F537E5342430F53975382E753AE7
:10053C0043E4F53B7BFF7A0979647D01120AE37B86
:10054C00007A007936E4FD120AE3D20F300E1E0554
:10055C0034E534B40A050533E4F534AD347F0312C5
:10056C000CB6AD337F02120CB6C20FC20E200003C4
:10057C0002046FD534051533753409AD347F03127D
:10058C000CB6AD337F02120CB6C20FC20002046F60
:10059C00200C0302046F200D03020634E52D7003BA
:1005AC00752D08E52D120B68EF2430F536E52D7509
:1005BC00F003A42405FF120B6FEF2430F537E52D63
:1005CC0075F003A42406FF120B6FEF2430F5397578
:1005DC00382E753A43E4F53BE52DD39525500BC3E6
:1005EC00E525952D2431F5268009C3E525952D2487
:1005FC0039F526152D7BFF7A0979697D01120AE3FD
:10060C007B007A007936E4FD120AE37536207537E3
:10061C002075382075392085263AE4F53BFB7A00A5
:10062C007936FD120AE3C20D20010302046F20018A
:10063C00FD7BFF7A097972E4FD120AE312078E1230
:10064C000D157F887E13120B4AD29685252DD20D5F
:03065C0002046F26
:10078E00852511E4F510E510C39408505CE511B40D
:10079E000903751101E511120B68EF2430F536E5EA
:1007AE001175F003A42405FF120B6FEF2430F537FB
:1007BE00E51175F003A42406FF120B6FEF2430F53C
:1007CE003975382E753A43753B20E5102431F53CCA
:1007DE00753D0D753E0AE4F53FFB7A0079367D0ACC
:1007EE00120B0E05100511809D120ADB7BFF7A0994
:1007FE007991E4FD120AE375364F75374B75382142
:10080E00E4F539FB7A0079367D04120B0E7B007A03
:08081E00007936E4FD020AE353
:03000300020826CA
:10082600C0E0C0F0C083C082C0D075D000C000C098
:1008360001C002C003C004C005C006C0077F647EB5
:1008460000120B4A20B22C759930300C0B20012374
:10085600D20BC20FC20C801B300B11C20BC20C7B19
:10086600FF7A0979957D01120AE38007D20C852566
:100876002DD20DD007D006D005D004D003D002D09B
:0E08860001D000D0D0D082D083D0F0D0E032AC
:030013000209B629
:1009B600C0E0C0F0C083C082C0D075D000C000C007
:1009C60001C002C003C004C005C006C0077F647E24
:1009D60000120B4A20B317300C0B300104C2018001
:1009E6000DD20D8009300B04D20E8002D20AD00738
:1009F600D006D005D004D003D002D001D000D0D08C
:090A0600D082D083D0F0D0E032A0
:03001B000208FFD9
:1008FF00C0E0C0F0C083C082C0D075D000C000C0BF
:10090F0001C002C003C004C005C006C0077F647EDB
:10091F0000120B4A20B51B300C13200115D201C257
:10092F0096120ADB7F807E25120B928005300B0218
:10093F00D200D007D006D005D004D003D002D0010A
:0D094F00D000D0D0D082D083D0F0D0E032E4
:100D1500C2AC53890F438960758DFF758BFFD2ABCC
:030D2500D28E2249
:10089400D2A8D288D2AAD28AD2AFC20AC20CC20DBE
:1008A400C20EC20F120D15120D017F01120B6F8FB4
:1008B400327F02120B6F8F337F03120B6F8F34AFB3
:1008C400327E007C037DE8120329AC06AD07E533D4
:1008D40075F064A42DFDEC35F0FCE53475F00AA444
:1008E400AEF02DF52CEE3CF52BE4FF120B6F8F25AB
:0B08F4007BFF7A0979957D01020AE381
:10065F00E4F52EF52F120D4AE4F510120A0FEF25CF
:10066F002FF52FEE352EF52E0510E510C3940A4009
:10067F00EA7F0A7E00120B4AAE2EAF2F7C037DE875
:10068F0012033BAC06AD07E41202298F2A8E298D87
:10069F00288C27A804A905AA06AB0712011EAB2AAE
:1006AF00AA29A928A82712011E7B527A49799D7879
:1006BF00BA12011EC004C005C006C0077F8E7E0699
:1006CF007D307C3EAB2AAA29A928A82712011EAB90
:1006DF002AAA29A928A82712011ED003D002D001C7
:1006EF00D00012002D7B667A6679FB784212002DBE
:1006FF00C004C005C006C0077F6C7E267DE27C402B
:10070F00AB2AAA29A928A82712011EA804A905AA5D
:10071F0006AB07D007D006D005D004120029E4FBA2
:10072F00FA79C8784212011E1202628E2E8F2F7C28
:10073F00037DE812033BEF2430F536AE2EAF2F7C4E
:10074F00037DE812033B7E007F64CFCDCFCECCCEAE
:10075F0012033BEF2430F53775382EAE2EAF2F7CBA
:10076F00007D6412033B7E007F0ACFCDCFCECCCE6F
:0E077F0012033BEF2430F539753A43E4F53BA5
:01078D002249
:0D0B3D007F017E00120B4AD2937F017E00E3
:100B4A00D3EF9400EE940040147D7D7C00ED1D707F
:0D0B5A00011CED4C70F7EF1F70E61E80E3EC
:010B6700226B
:100D4A00D293D29400000000C293120B46D293228F
:100C9900D2940000000000D2930000000000C2942A
:0D0CA9000000000000C293000000000022C7
:100CE900C2930000000000C2940000000000D293EB
:080CF9000000000000D294226B
:020A9C008F11B8
:100A9E0075130A851114E4F512E51430E704D20932
:100AAE008002C209120C1FE51425E0F5140512C3CD
:100ABE00E5126480948840E1120C5D30080E120C31
:0C0ACE00E9E51360071513120C9980C7AE
:010ADA0022F9
:100C1F00200904C2948002D29400D29300000000F5
:0F0C2F0000000000C2930000000000000000223F
:100BBA00E4F512F511E51225E0F512120C5D300884
:100BCA000205120511E511C3940840E9120C1FAF82
:010BDA001208
:010BDB0022F7
:100C5D00D294D208D2930000000000000000A294AC
:0E0C6D00920800C29300000000000000002268
:100A0F00120C997FB4120A9C7F07120A9C120C9940
:100A1F007F01120A9CC209120BBA8F24C209120B52
:100A2F00BA8F23D209120BBA8F30120CE9E523FECD
:100A3F007C00E42524FFEC3EFEEF25E0FFEE33FEC5
:090A4F00EF244DFFEE3495FE2268
:080B0E008B128A1389148D1566
:100B1600E4F516E516C39515501CAB12AA13A914D5
:100B26008516827583001202FCF5997F467E0012B7
:060B36000B4A051680DDEC
:010B3C002296
:0100160022C7
:100B920075985053890F438920AB07AA06E4F9F8E8
:100BA2007F807E70FDFC120A58EFF404F58D858D6E
:080BB2008BC2ABD2ACD28E2243
:03002300020D28A3
:100D2800309808C298859935759921309902C299E9
:010D38003288
:100D39008F15120CD08515A0C292C291D290C29083
:010D49002287
:100D01007F01120D397F0C120D397F06120D397FCB
:040D110038020D395E
:100CD000753180E53130E71075A0FFC292D291D214
:090CE0009085A031C29080EB2246
:100C7B00120CD0E531B4100B75A0C0C292C291D248
:0E0C8B0090C2908FA0D292C291D290C29022BD
:080ADB007A0979877BFF7D0198
:100AE3008B128A138914ED60057F01120D39AB1245
:100AF300AA13A9141202E3FF6010120C7B740125E0
:0B0B030014F514E43513F51380E42210
:0D000600D294120B3DC294120B46C29322FD
:0E0D5A00C294120B3DD2947F017E00020B4A20
:080BFE001200067FA0120BDCBF
:100C0600120B4430940BE512C394FF500405128076
:080C1600F2C293120B46D294C6
:010C1E0022B3
:100BDC008F22E4FBA2179294120B44E52225E0F538
:100BEC0022C293120B460BBB08EAD294120B46C2DC
:010BFC009365
:010BFD0022D5
:100C3E00D294E4F522FBE52225E0F522120B44A224
:0E0C4E00949210C293120B460BBB08EAAF2221
:010C5C002275
:100CB600AA05A907120BFEAF01120BDC120C06AF38
:0A0CC60002120BDC120C06020D5A9C
:070B680075F003A42404FF53
:020B6F00AA07D3
:100B7100120BFEAF02120BDC120C061200067FA153
:100B8100120BDC120C06120C3EAB07120D5AAF030E
:010B91002241
:100026000202CEE86480F8E933E83360110460F038
:10003600ED33EC337009E8FCE9FDEAFEEBFF220440
:1000460060DED3EB9FEA9EE99DE8C2E78CF0C2F73B
:1000560095F0400CE8CCF8E9CDF9EACEFAEBCFFB07
:1000660012029985D0F05804700320D5B3E80470C5
:10007600075002B2D50202D892D5EC0460F7E4CC60
:10008600C0E0C398F8603B94186008400DD0E0FBD0
:100096000202B0E4FBFAC9FC8028E830E406E4C9B1
:1000A600FBE4CAFCE830E305E4C9CACBFCE8540724
:1000B6006010F8C3E913F9EA13FAEB13FBEC13FC2F
:1000C600D8F130F52FC3E49CFCEF9BFFEE9AFEEDD2
:1000D60099FDD0E0FBEF4E4D4C701222DB0302027D
:1000E600D5EC2CFCEF33FFEE33FEED33FDED30E7C0
:1000F600EB0202B0EF2BFFEE3AFEED39FDD0E0FB4E
:1001060050130BBB00030202D8ED13FDEE13FEEFF6
:0801160013FFEC13FC0202B020
:10011E00EC4D6011E8497017ED33EC3304600DE4DB
:10012E00FCFFFEFD22E933E8330470F80202CE1222
:10013E00029958046009E4CC248150062850090223
:10014E0002D82840030202D5C0E0EB4A7044B980C1
:10015E0006D0E0FB0202C4EF4E701CBD8008EBFF20
:10016E00EAFEE9FD80EBE98DF0A4FEE5F002020760
:10017E00E9CDF9EAFEEBFFEF89F0A4FCE5F0CE89BC
:10018E00F0A42EFFE435F0CD89F0A42DFEE435F079
:10019E008067EF4E7005BD80D780C3EF8BF0A4ACA7
:1001AE00F0EE8BF0A42CFCE435F0F8EF8AF0A42CE2
:1001BE00E5F038FCE433CB8DF0A42CFCE5F03BF8F5
:1001CE00EE8AF0A42CFCE5F038F8E433CF89F0A4E5
:1001DE002CFCE5F038CF3400CE89F0A42FFFE5F0EB
:1001EE003EFEE433C98DF0A42EFEE5F039CD8AF043
:1001FE00A42FFFE5F03EFEE43DFD33D0E0FB5007BB
:10020E000BBB000F0202D8EC2CFCEF33FFEE33FEDB
:06021E00ED33FD0202B009
:1002240075F020800E75F010800575F0087D007E55
:10023400007F003392D530D503120390EC33401085
:10024400EF33FFEE33FEED33FDEC33FCD5F0ED225E
:0E025400E5F0247EA2D513CC92E7CDCEFF229A
:10026200EDD2E7CD33EC3392D524814006E4FFFE94
:10027200FDFC22FCE4CFCECDCC24E0501174FF80F3
:10028200EDC3CC13CCCD13CDCE13CECF13CF047090
:07029200F030D5DE020390FD
:10029900E9D2E7C933E833F892D5EDD2E7CD33ECAB
:0702A90033FC5002B2D52224
:1002B000EC30E7100FBF000C0EBE00080DBD0004AF
:1002C0000BEB6014A2D5EB13FCED92E7FD2274FF5B
:1002D000FCFDFEFF22E480F8A2D574FF13FC7D80B4
:0302E000E480EFC8
:03000000020D6886
:0C0D6800787FE4F6D8FD75813F02046C32
:1002E300BB010689828A83E0225002E722BBFE0219
:0902F300E32289828A83E493224C
:1002FC00BB010CE58229F582E5833AF583E02250B7
:10030C0006E92582F8E622BBFE06E92582F8E22200
:0D031C00E58229F582E5833AF583E493221A
:10032900EF8DF0A4A8F0CF8CF0A428CE8DF0A42EE8
:02033900FE22A2
:10033B00BC000BBE0029EF8DF084FFADF022E4CCA6
:10034B00F875F008EF2FFFEE33FEEC33FCEE9DEC6F
:10035B00984005FCEE9DFE0FD5F0E9E4CEFD22EDB5
:10036B00F8F5F0EE8420D21CFEADF075F008EF2FFF
:10037B00FFED33FD4007985006D5F0F222C398FDF0
:05038B000FD5F0EA228D
:100A5800C2D5E830E70FB2D5E4C39BFBE49AFAE4C9
:100A680099F9E498F8EC30E717B2D5120A8E120318
:100A7800DAE4C39BFBE49AFAE499F9E498F8800372
:100A88001203DA30D50DE4C39FFFE49EFEE49DFD1A
:040A9800E49CFC22BC
:0E039000C3E49FFFE49EFEE49DFDE49CFC227E
:10039E0075F008758200EF2FFFEE33FECD33CDCC16
:1003AE0033CCC58233C5829BED9AEC99E582984099
:1003BE000CF582EE9BFEED9AFDEC99FC0FD5F0D676
:1003CE00E4CEFBE4CDFAE4CCF9A88222B800C1B9A0
:1003DE000059BA002DEC8BF084CFCECDFCE5F0CBDE
:1003EE00F97818EF2FFFEE33FEED33FDEC33FCEB17
:1003FE0033FB10D703994004EB99FB0FD8E5E4F9D2
:10040E00FA227818EF2FFFEE33FEED33FDEC33FCBE
:10041E00C933C910D7059BE99A4007EC9BFCE99AB2
:10042E00F90FD8E0E4C9FAE4CCFB2275F010EF2FF7
:10043E00FFEE33FEED33FDCC33CCC833C810D707F7
:10044E009BEC9AE899400AED9BFDEC9AFCE899F832
:0E045E000FD5F0DAE4CDFBE4CCFAE4C8F922C5
:00000001FF
