:100ADD002020202057656C636F6D6521202020201C
:100AED002020507265737320746F205354415254FB
:100AFD0000526573756C743A005365743A00486919
:100B0D0073746F72793A0020202000426C75657401
:050B1D006F6F74680019
:0F0E2400C118C119C11A013400013500012400A1
:10046400D2A8D288D2AAD28AD2AFC20AC20CC20DF2
:10047400C20EC20F7F807E25120D5D53890F438902
:1004840060758DFF758BFFD2ABD28E120DDF7F01AD
:10049400120C3E8F367F02120C3E8F377F03120CF4
:1004A4003E8F38AF367E007C037DE8120321AC0614
:1004B400AD07E53775F064A42DFDEC35F0FCE538A7
:1004C40075F00AA4AEF02DF52EEE3CF52DE4FF12E6
:1004D4000C3E8F27120BD9200A0302058B7A0A7966
:1004E400FE120BDD1206C2C20A7B007A007939E4DF
:1004F400FD120BE1D3E531952EE530952D400FC269
:1005040097C2967FE87E03120C19D297D2960527DC
:10051400E527B40903752701AD27E4FF120D94AE56
:1005240030AF317C037DE8120333AD07E52775F066
:1005340003A42404FF120D94AE30AF317C037DE894
:100544001203337E007F64CFCDCFCECCCE120333E3
:10055400AD07E52775F003A42405FF120D94AE3012
:10056400AF317C007D641203337E007F0ACFCDCF90
:10057400CECCCE120333AD07E52775F003A42406D1
:10058400FF120D940204DB300B7A200F33E536247E
:1005940030F539E5372430F53AE5382430F53C7543
:1005A4003B2E753D43E4F53E7BFF7A0B79067D01D6
:1005B400120BE17B007A007939E4FD120BE1D20FD2
:1005C400300E1E0538E538B40A050537E4F538ADB4
:1005D400387F03120D94AD377F02120D94C20FC2FF
:1005E4000E2000030204DBD538051537753809AD34
:1005F400387F03120D94AD377F02120D94C20FC2DF
:10060400000204DB200C030204DB200D030206A01D
:10061400E52F7003752F08E52F120C37EF2430F502
:1006240039E52F75F003A42405FF120C3EEF2430A6
:10063400F53AE52F75F003A42406FF120C3EEF24CF
:1006440030F53C753B2E753D43E4F53EE52FD395DF
:1006540027500BC3E527952F2431F5288009C3E5DE
:1006640027952F2439F528152F7BFF7A0B790B7DDD
:1006740001120BE17B007A007939E4FD120BE1757C
:100684003920753A20753B20753C2085283DE4F5DA
:100694003EFB7A007939FD120BE1C20D2001030201
:1006A40004DBA20182B040FA120D79A201B0194014
:0E06B400FA1207F17F887E13120C190204DB84
:1007F100852711E4F510E510C39408505CE511B4A8
:100801000903751101E511120C37EF2430F539E5B3
:100811001175F003A42405FF120C3EEF2430F53AC4
:10082100E51175F003A42406FF120C3EEF2430F508
:100831003C753B2E753D43753E20E5102431F53F57
:1008410075400D75410AE4F542FB7A0079397D0A5C
:10085100120BA505100511809D7BFF7A0B7914E41D
:10086100FD120BE175394F753A4B753B21E4F53CAF
:10087100FB7A0079397D04120BA57B007A00793966
:05088100E4FD020BE1A3
:0300030002097877
:10097800C0E0C0F0C083C082C0D075D000C000C045
:1009880001C002C003C004C005C006C0077F647E62
:1009980000120C1920B223B296300C08D20BC20FE9
:1009A800C20C800E300B09C20BC20C120BD980028C
:1009B800D20C300C0585272FD20DD007D006D005D4
:1009C800D004D003D002D001D000D0D0D082D083C0
:0509D800D0F0D0E03278
:03001300020A429C
:100A4200C0E0C0F0C083C082C0D075D000C000C07A
:100A520001C002C003C004C005C006C0077F647E97
:100A620000120C1920B310300C04D20D8009300B87
:100A720004D20E8002D20AD007D006D005D004D00C
:100A820003D002D001D000D0D0D082D083D0F0D019
:020A9200E03250
:03001B000209DDFA
:1009DD00C0E0C0F0C083C082C0D075D000C000C0E0
:1009ED0001C002C003C004C005C006C0077F647EFD
:1009FD0000120C1920B523300C1B300109C20185E2
:100A0D00272FD20D8014D2017BFF7A0B79187D012F
:100A1D00120BE18005300B02D200D007D006D005B5
:100A2D00D004D003D002D001D000D0D0D082D0835A
:050A3D00D0F0D0E03212
:1006C200E4F530F531120E04E4F510120A94EF2528
:1006D20031F531EE3530F5300510E510C3940A409E
:1006E200EA7F0A7E00120C19AE30AF317C037DE83E
:1006F200120333AC06AD07E41202218F2C8E2B8D30
:100702002A8C29A804A905AA06AB07120116AB2C4C
:10071200AA2BA92AA8291201167B527A49799D7817
:10072200BA120116C004C005C006C0077F8E7E063D
:100732007D307C3EAB2CAA2BA92AA829120116AB2C
:100742002CAA2BA92AA829120116D003D002D00163
:10075200D0001200257B667A6679FB78421200256A
:10076200C004C005C006C0077F6C7E267DE27C40C7
:10077200AB2CAA2BA92AA829120116A804A905AAFA
:1007820006AB07D007D006D005D004120021E4FB47
:10079200FA79C8784212011612025A8E308F317CD1
:1007A200037DE8120333EF2430F539AE30AF317CEC
:1007B200037DE81203337E007F64CFCDCFCECCCE53
:1007C200120333EF2430F53A753B2EAE30AF317C55
:1007D200007D641203337E007F0ACFCDCFCECCCE14
:0E07E200120333EF2430F53C753D43E4F53E41
:0107F00022E6
:0D0C0C007F017E00120C19D2937F017E0043
:100C1900D3EF9400EE940040147D7D7C00ED1D70AF
:0D0C2900011CED4C70F7EF1F70E61E80E31C
:010C3600229B
:100E0400D293D29400000000C293120C15D2932204
:100D4000D2940000000000D2930000000000C29482
:0D0D50000000000000C2930000000000221F
:100DC700C2930000000000C2940000000000D2930C
:080DD7000000000000D294228C
:020B66008F11ED
:100B680075130A851114E4F512E51430E704D20967
:100B78008002C209120CC6E51425E0F5140512C35B
:100B8800E5126480948840E1120D0430080E120DBD
:0C0B9800C7E51360071513120D4080C75D
:010BA400222E
:100CC600200904C2948002D29400D293000000004E
:0F0CD60000000000C29300000000000000002298
:100C6100E4F512F511E51225E0F512120D04300834
:100C71000205120511E511C3940840E9120CC6AF33
:010C81001260
:010C8200224F
:100D0400D294D208D2930000000000000000A29404
:0E0D1400920800C293000000000000000022C0
:100A9400120D407FB4120B667F07120B66120D40D5
:100AA4007F01120B66C209120C618F26C209120C57
:100AB400618F25D209120C618F32120DC7E525FE14
:100AC4007C00E42526FFEC3EFEEF25E0FFEE33FE3E
:090AD400EF244DFFEE3495FE22E3
:080BA5008B128A1389148D15CF
:100BAD00E4F516E516C395155021AB12AA13A91439
:100BBD008516827583001202F4FF120E14301AFD91
:0B0BCD007F647E00120C19051680D812
:010BD80022FA
:100D5D005389F0438902AB07AA06E4F9F8FF7E1028
:0C0D6D007D0EFC120B22EFF404F58C222A
:100D7900AF8CC3E49FFF74019400C313EF13F40411
:0B0D8900F58AD2A9D28CC219C2182230
:100E14008F35858C8AD2A9D28CC2B1C21AD218223B
:03000B00020912D5
:04091200C0E0C0D0B1
:100916003018280524E524D39408500DE5351392A4
:10092600B1E535C313F5358044E524B40904D2B1E5
:10093600803B752400C28CD21A8032E524700D20CB
:10094600B006F53405248025C28C8021E524D39495
:10095600085010E534C313F53430B0034334800532
:0D09660024800A752400C28C30B002D21922
:05097300D0D0D0E032FD
:100DF3008F15120DAE8515A0C292C291D290C290EA
:010E030022CC
:100DDF007F01120DF37F0C120DF37F06120DF37FBF
:040DEF0038020DF3C6
:100DAE00753380E53330E71075A0FFC292D291D231
:090DBE009085A033C29080EB2265
:100D2200120DAEE533B4100B75A0C0C292C291D2BF
:0E0D320090C2908FA0D292C291D290C2902215
:080BD9007A0A79DD7BFF7D0142
:100BE1008B128A138914ED60057F01120DF3AB128C
:100BF100AA13A9141202DBFF6010120D2274012541
:0B0C010014F514E43513F51380E42211
:0D0E4200D294120C0CC294120C15C2932213
:0E0E3400C294120C0CD2947F017E00020C19A5
:080CA500120E427FA0120C8325
:100CAD00120C1330940BE512C394FF5004051280FF
:080CBD00F2C293120C15D2944F
:010CC500220C
:100C83008F22E4FBA2179294120C13E52225E0F5C0
:100C930022C293120C150BBB08EAD294120C15C294
:010CA30093BD
:010CA400222D
:100CE500D294E4F522FBE52225E0F522120C13A2AD
:0E0CF500949210C293120C150BBB08EAAF22AA
:010D030022CD
:100D9400AA05A907120CA5AF01120C83120CADAF62
:0A0DA40002120C83120CAD020E3493
:070C370075F003A42404FF83
:020C3E00AA0703
:100C4000120CA5AF02120C83120CAD120E427FA142
:100C5000120C83120CAD120CE5AB07120E34AF036D
:010C60002271
:10001E000202C6E86480F8E933E83360110460F048
:10002E00ED33EC337009E8FCE9FDEAFEEBFF220448
:10003E0060DED3EB9FEA9EE99DE8C2E78CF0C2F743
:10004E0095F0400CE8CCF8E9CDF9EACEFAEBCFFB0F
:10005E0012029185D0F05804700320D5B3E80470D5
:10006E00075002B2D50202D092D5EC0460F7E4CC70
:10007E00C0E0C398F8603B94186008400DD0E0FBD8
:10008E000202A8E4FBFAC9FC8028E830E406E4C9C1
:10009E00FBE4CAFCE830E305E4C9CACBFCE854072C
:1000AE006010F8C3E913F9EA13FAEB13FBEC13FC37
:1000BE00D8F130F52FC3E49CFCEF9BFFEE9AFEEDDA
:1000CE0099FDD0E0FBEF4E4D4C701222DB03020285
:1000DE00CDEC2CFCEF33FFEE33FEED33FDED30E7D0
:1000EE00EB0202A8EF2BFFEE3AFEED39FDD0E0FB5E
:1000FE0050130BBB00030202D0ED13FDEE13FEEF07
:08010E0013FFEC13FC0202A830
:10011600EC4D6011E8497017ED33EC3304600DE4E3
:10012600FCFFFEFD22E933E8330470F80202C61232
:10013600029158046009E4CC248150062850090233
:1001460002D02840030202CDC0E0EB4A7044B980D9
:1001560006D0E0FB0202BCEF4E701CBD8008EBFF30
:10016600EAFEE9FD80EBE98DF0A4FEE5F00201FF71
:10017600E9CDF9EAFEEBFFEF89F0A4FCE5F0CE89C4
:10018600F0A42EFFE435F0CD89F0A42DFEE435F081
:100196008067EF4E7005BD80D780C3EF8BF0A4ACAF
:1001A600F0EE8BF0A42CFCE435F0F8EF8AF0A42CEA
:1001B600E5F038FCE433CB8DF0A42CFCE5F03BF8FD
:1001C600EE8AF0A42CFCE5F038F8E433CF89F0A4ED
:1001D6002CFCE5F038CF3400CE89F0A42FFFE5F0F3
:1001E6003EFEE433C98DF0A42EFEE5F039CD8AF04B
:1001F600A42FFFE5F03EFEE43DFD33D0E0FB5007C3
:100206000BBB000F0202D0EC2CFCEF33FFEE33FEEB
:06021600ED33FD0202A819
:10021C0075F020800E75F010800575F0087D007E5D
:10022C00007F003392D530D503120388EC33401095
:10023C00EF33FFEE33FEED33FDEC33FCD5F0ED2266
:0E024C00E5F0247EA2D513CC92E7CDCEFF22A2
:10025A00EDD2E7CD33EC3392D524814006E4FFFE9C
:10026A00FDFC22FCE4CFCECDCC24E0501174FF80FB
:10027A00EDC3CC13CCCD13CDCE13CECF13CF047098
:07028A00F030D5DE0203880D
:10029100E9D2E7C933E833F892D5EDD2E7CD33ECB3
:0702A10033FC5002B2D5222C
:1002A800EC30E7100FBF000C0EBE00080DBD0004B7
:1002B8000BEB6014A2D5EB13FCED92E7FD2274FF63
:1002C800FCFDFEFF22E480F8A2D574FF13FC7D80BC
:0302D800E480EFD0
:030000000208866D
:0C088600787FE4F6D8FD7581420208CDB1
:1002DB00BB010689828A83E0225002E722BBFE0221
:0902EB00E32289828A83E4932254
:1002F400BB010CE58229F582E5833AF583E02250BF
:1003040006E92582F8E622BBFE06E92582F8E22208
:0D031400E58229F582E5833AF583E4932222
:10032100EF8DF0A4A8F0CF8CF0A428CE8DF0A42EF0
:02033100FE22AA
:10033300BC000BBE0029EF8DF084FFADF022E4CCAE
:10034300F875F008EF2FFFEE33FEEC33FCEE9DEC77
:10035300984005FCEE9DFE0FD5F0E9E4CEFD22EDBD
:10036300F8F5F0EE8420D21CFEADF075F008EF2F07
:10037300FFED33FD4007985006D5F0F222C398FDF8
:050383000FD5F0EA2295
:100B2200C2D5E830E70FB2D5E4C39BFBE49AFAE4FE
:100B320099F9E498F8EC30E717B2D5120B58120382
:100B4200D2E4C39BFBE49AFAE499F9E498F88003AF
:100B52001203D230D50DE4C39FFFE49EFEE49DFD57
:040B6200E49CFC22F1
:0E038800C3E49FFFE49EFEE49DFDE49CFC2286
:10089200020464E493A3F8E493A34003F68001F214
:1008A20008DFF48029E493A3F85407240CC8C33367
:1008B200C4540F4420C8834004F456800146F6DF36
:1008C200E4800B0102040810204080900E24E47E94
:1008D200019360BCA3FF543F30E509541FFEE4932B
:1008E200A360010ECF54C025E060A840B8E493A3F2
:1008F200FAE493A3F8E493A3C8C582C8CAC583CA1D
:10090200F0A3C8C582C8CAC583CADFE9DEE780BED4
:010E330000BE
:1003960075F008758200EF2FFFEE33FECD33CDCC1E
:1003A60033CCC58233C5829BED9AEC99E5829840A1
:1003B6000CF582EE9BFEED9AFDEC99FC0FD5F0D67E
:1003C600E4CEFBE4CDFAE4CCF9A88222B800C1B9A8
:1003D6000059BA002DEC8BF084CFCECDFCE5F0CBE6
:1003E600F97818EF2FFFEE33FEED33FDEC33FCEB1F
:1003F60033FB10D703994004EB99FB0FD8E5E4F9DA
:10040600FA227818EF2FFFEE33FEED33FDEC33FCC6
:10041600C933C910D7059BE99A4007EC9BFCE99ABA
:10042600F90FD8E0E4C9FAE4CCFB2275F010EF2FFF
:10043600FFEE33FEED33FDCC33CCC833C810D707FF
:100446009BEC9AE899400AED9BFDEC9AFCE899F83A
:0E0456000FD5F0DAE4CDFBE4CCFAE4C8F922CD
:00000001FF
