:0300000002019367
:0C019300787FE4F6D8FD75810E0201169D
:0D01860068656C6C6F2C776F726C642100E3
:1001160012012B1200038E0D8F0E7BFF7A0179865A
:0501260012016580FEDE
:06008700D2937F087E0009
:10008D00E4FDFCC3ED9FEC9E5008000DBD00010C7E
:02009D0080F1F0
:01009F00223E
:0E017800EF24FF929400120087C29302008DC4
:10013F00D294120087A294E433FB00C29312008D75
:02014F00AF03FC
:01015100228B
:020039008F0B2B
:10003B00750C02E4FBE50B5480FF120178E50B25F0
:10004B00E0F50B0BBB08EE12013FBF010E1200EAED
:0B005B00E50C6007150C1200D280D8E5
:010066002277
:1000A000E4F9FAE925E0F912013FEF29F90ABA0863
:0800B000F2E4FF120178AF0138
:0100B8002225
:1000D200D2947F047E0012008DD29312008DC294BE
:0800E20012008DC29302008D93
:1000EA00C2937F047E0012008DC29412008DD293B7
:0600FA0012008DD29422D9
:10000300C2931200D2E4FF1200397F0712003912A3
:1000130000D27F011200391200A08F081200A08FB6
:10002300091200A08F0A1200EAE509FE7C00E4250C
:0500330008FFEC3EFE99
:0100380022A5
:100152008F08C2901201008508A0C292C291D2906B
:03016200C2902226
:10012B007F011201527F0C1201527F061201527F86
:04013B003802015233
:100100007F80EF30E70F7590FFC292D291D290AF0F
:05011000A0C29080ED8B
:0101150022C7
:02006700AE07E2
:10006900120100C290BF100BC292C29175A0C0D2FA
:0D00790090C290D292C2918EA0D290C290FF
:010086002257
:100165001200B9FF600C120067740129F9E43AFA2C
:0301750080EE22F7
:1000B900BB010689828A83E0225002E722BBFE0245
:0900C900E32289828A83E4932278
:00000001FF
