:1008A7002020526573756C743A00202020536574BC
:1008B7003A0020486973746F72793A20002020202B
:1008C70000202000202020426C7565746F6F7468CB
:1008D700002020202020202053656E64696E672E3B
:1008E7002E2E00202020426C7565746F6F7468206F
:1008F70020202020202020202020204F4B21004F87
:100907004B210057656C636F6D6521202050726520
:10091700737320746F205354415254004E616D65B8
:030927003A200073
:10046C001209F6200A030205377BFF7A0879A77D6B
:10047C0001120BC71206E1C20A120BBFD3E530956D
:10048C002DE52F952C400FC297C2967FE87E031264
:10049C000C31D297D2960525E525B40903752501B3
:1004AC00AD25E4FF120E05AE2FAF307C037DE812B4
:1004BC00033BAD07E52575F003A42404FF120E05DC
:1004CC00AE2FAF307C037DE812033B7E007F64CF00
:1004DC00CDCFCECCCE12033BAD07E52575F003A4F2
:1004EC002405FF120E05AE2FAF307C007D64120385
:1004FC003B7E007F0ACFCDCFCECCCE12033BAD07D7
:10050C00E52575F003A42406FF120E05E52575F00C
:10051C0008A42430FF7B007A007936120B817FDC33
:10052C007E05120C31120D4E02046F300B72200F2F
:10053C002BE5332430F540E5342430F541E5352402
:10054C0030F54375422E754443E4F5457BFF7A083C
:10055C0079B17D01120BC7120BBFD20F300E1E05E5
:10056C0035E535B40A050534E4F535AD357F0312B0
:10057C000E05AD347F02120E05C20FC20E20000311
:10058C0002046FD535051534753509AD357F031269
:10059C000E05AD347F02120E05C20FC20002046FAD
:1005AC00200C0302069B200D0302064FE52E700360
:1005BC00752E08E52E120C4FEF2430F540E52E7504
:1005CC00F003A42405FF120C56EF2430F541E52E60
:1005DC0075F003A42406FF120C56EF2430F5437576
:1005EC00422E754443E4F545E52ED39525500BC3B7
:1005FC00E525952E2431F5268009C3E525952E2475
:10060C0039F5267BFF7A0879B97D01120BC7E52EE7
:10061C00120CA1120BBF7BFF7A0879C4E4FD120BFC
:10062C00C7E4F527FB7A007926FD120BC77BFF7A0E
:10063C000879C8E4FD120BC77A007936120BC3C2D5
:10064C000D152E20010302046F7BFF7A0879CB7DF8
:10065C0001120BC72001FD7BFF7A0879D8E4FD124B
:10066C000BC71208107BFF7A0879EA7D01120BC7C1
:10067C00C2977FE87E03120C31D297120E647F88EA
:10068C007E13120C31D29685252ED20D02046F20CA
:10069C00020302046F120CE9120E647B007A0079DB
:1006AC00407FE0120B81C2027FE0120CA87B007A23
:1006BC00007936E4FD120BC77FCC120E777BFF7AE4
:1006CC00097906E4FD120BC77FD07E07120C31129C
:0506DC000D4E02046F49
:070CA10075F008A42430FFE8
:020CA8008F12A9
:100CAA00E4F513E5122513FF120C5674362513F8D2
:0C0CBA00A607051374352513F8E670E753
:010CC600220B
:080B81008F108B118A128913F9
:100B8900E4F514E5102514FFAB11AA12A913851475
:100B9900827583001202FCFD120E0505147E007495
:100BA900FF2514F582EE34FFF583AB11AA12A913C0
:050BB9001202FC70CEE9
:010BBE002214
:10081000852511E4F510E510C394085076E51170B4
:1008200003751108E511120C4FEF2430F540E51166
:1008300075F003A42405FF120C56EF2430F541E5B2
:100840001175F003A42406FF120C56EF2430F54373
:1008500075422E754443754520E5102431F54675E3
:100860004720E4F548FB7A007940120BF2E51112BB
:100870000CA17B007A007936120BF275400D7541A0
:100880000AE4F542FB7A007940120BF205101511CB
:1008900002081675404F75414B754221E4F543FB44
:0708A0007A007940020BF21F
:030003000209935C
:10099300C0E0C0F0C083C082C0D075D000C000C02A
:1009A30001C002C003C004C005C006C0077F647E47
:1009B30000120C3120B221300C0B20011BD20BC2D0
:1009C3000FC20C8013300B09C20BC20C120D4E80E8
:1009D30007D20C85252ED20DD007D006D005D00422
:1009E300D003D002D001D000D0D0D082D083D0F0B9
:0309F300D0E0321F
:100D4E007FE0120CA87B007A0079367D01120BC76A
:100D5E007F88120E777BFF7A09790AE4FD020BC7B2
:03001300020A5985
:100A5900C0E0C0F0C083C082C0D075D000C000C063
:100A690001C002C003C004C005C006C0077F647E80
:100A790000120C3120B31A300C0B300104C2018072
:100A890010D20D800C300B04D20E8005200202D248
:100A99000AD007D006D005D004D003D002D001D0A7
:0C0AA90000D0D0D082D083D0F0D0E0325A
:03001B0002092AAD
:10092A00C0E0C0F0C083C082C0D075D000C000C093
:10093A0001C002C003C004C005C006C0077F647EB0
:10094A0000120C3120B527300C09200121D201C236
:10095A00968014300B04D2008014D2027BFF7A09ED
:10096A0079237D01120BC77F807E25120C79D0076F
:10097A00D006D005D004D003D002D001D000D0D008
:09098A00D082D083D0F0D0E0321D
:100E6400C2AC53890F438960758DFF758BFFD2AB7C
:030E7400D28E22F9
:1009F600D2A8D288D2AAD28AD2AFC20AC20CC20D5B
:100A0600C20EC20F120E64120E507F01120C568FC8
:100A1600337F02120C568F347F03120C568F35AF7C
:100A2600337E007C037DE8120329AC06AD07E5346E
:100A360075F064A42DFDEC35F0FCE53575F00AA4DF
:100A4600AEF02DF52DEE3CF52CE4FF120C568F255D
:030A5600020D4E40
:1006E100E4F52FF530120E88E4F510120AB5EF2566
:1006F10030F530EE352FF52F0510E510C3940A4083
:10070100EA7F0A7E00120C31AE2FAF307C037DE808
:1007110012033BAC06AD07E41202298F2B8E2A8D02
:10072100298C28A804A905AA06AB0712011EAB2B28
:10073100AA2AA929A82812011E7B527A49799D78F3
:10074100BA12011EC004C005C006C0077F8E7E0616
:100751007D307C3EAB2BAA2AA929A82812011EAB09
:100761002BAA2AA929A82812011ED003D002D00140
:10077100D00012002D7B667A6679FB784212002D3B
:10078100C004C005C006C0077F6C7E267DE27C40A8
:10079100AB2BAA2AA929A82812011EA804A905AAD7
:1007A10006AB07D007D006D005D004120029E4FB20
:1007B100FA79C8784212011E1202628E2F8F307CA4
:1007C100037DE812033BEF2430F540AE2FAF307CC0
:1007D100037DE812033B7E007F64CFCDCFCECCCE2C
:1007E10012033BEF2430F54175422EAE2FAF307C22
:1007F100007D6412033B7E007F0ACFCDCFCECCCEED
:0E08010012033BEF2430F543754443E4F54504
:01080F0022C6
:0D0C24007F017E00120C31D2937F017E0013
:100C3100D3EF9400EE940040147D7D7C00ED1D7097
:0D0C4100011CED4C70F7EF1F70E61E80E304
:010C4E002283
:100E8800D293D29400000000C293120C2DD2932268
:100DE800D2940000000000D2930000000000C294DA
:0D0DF8000000000000C29300000000002277
:100E3800C2930000000000C2940000000000D2939A
:080E48000000000000D294221A
:020B42008F1111
:100B440075130A851114E4F512E51430E704D2098B
:100B54008002C209120D6EE51425E0F5140512C3D6
:100B6400E5126480948840E1120DAC30080E120E38
:0C0B740038E51360071513120DE880C768
:010B80002252
:100D6E00200904C2948002D29400D29300000000A5
:0F0D7E0000000000C293000000000000000022EF
:100CC700E4F512F511E51225E0F512120DAC300826
:100CD7000205120511E511C3940840E9120D6EAF24
:010CE70012FA
:010CE80022E9
:100DAC00D294D208D2930000000000000000A2945C
:0E0DBC00920800C29300000000000000002218
:100AB500120DE87FB4120B427F07120B42120DE8AC
:100AC5007F01120B42C209120CC78F24C209120CF6
:100AD500C78F23D209120CC78F31120E38E523FEBA
:100AE5007C00E42524FFEC3EFEEF25E0FFEE33FE1F
:090AF500EF244DFFEE3495FE22C2
:060BF2008B128A13891426
:100BF800E4F515AB12AA13A91485158275830012A2
:100C080002FC6017AF1505158F827583001202FC70
:0B0C1800F5997F467E00120C3180D859
:010C230022AE
:100CE900E4FF3098FD85993FC298E53F6440600B69
:100CF900AE070F74402EF8A63F80E774402FF8E442
:010D0900F6F3
:010D0A0022C6
:100C790075985053890F438920AB07AA06E4F9F800
:100C89007F807E70FDFC120AFEEFF404F58D858DE0
:080C99008BC2ABD2ACD28E225B
:03002300020EB218
:0B0EB200309802C201309902C2993250
:100E77008F13120E1F8513A0C292C291D290C290F7
:010E87002248
:100E50007F01120E777F0C120E777F06120E777FBE
:040E600038020E77CF
:100E1F00753280E53230E71075A0FFC292D291D2C1
:090E2F009085A032C29080EB22F4
:100DCA00120E1FE532B4100B75A0C0C292C291D2A6
:0E0DDA0090C2908FA0D292C291D290C290226D
:080BBF007A0079407B00E4FD9F
:100BC7008B108A118912ED60057F01120E77AB1029
:100BD700AA11A9121202E3FF6010120DCA740125AF
:0B0BE70012F512E43511F51180E42234
:0D000600D294120C24C294120C2DC293222D
:0E0E9800C294120C24D2947F017E00020C3111
:080D2D001200067FA0120D0B5D
:100D3500120C2B30940BE515C394FF500405158058
:080D4500F2C293120C2DD294AE
:010D4D002283
:100D0B008F22E4FBA2179294120C2BE52225E0F51F
:100D1B0022C293120C2D0BBB08EAD294120C2DC2DB
:010D2B009334
:010D2C0022A4
:100D8D00D294E4F522FBE52225E0F522120C2BA2EC
:0E0D9D00949210C293120C2D0BBB08EAAF22E9
:010DAB002225
:100E0500AA05A907120D2DAF01120D0B120D35AF55
:0A0E150002120D0B120D35020E98AB
:070C4F0075F003A42404FF6B
:020C5600AA07EB
:100C5800120D2DAF02120D0B120D351200067FA1D9
:100C6800120D0B120D35120D8DAB07120E98AF0336
:010C78002259
:100026000202CEE86480F8E933E83360110460F038
:10003600ED33EC337009E8FCE9FDEAFEEBFF220440
:1000460060DED3EB9FEA9EE99DE8C2E78CF0C2F73B
:1000560095F0400CE8CCF8E9CDF9EACEFAEBCFFB07
:1000660012029985D0F05804700320D5B3E80470C5
:10007600075002B2D50202D892D5EC0460F7E4CC60
:10008600C0E0C398F8603B94186008400DD0E0FBD0
:100096000202B0E4FBFAC9FC8028E830E406E4C9B1
:1000A600FBE4CAFCE830E305E4C9CACBFCE8540724
:1000B6006010F8C3E913F9EA13FAEB13FBEC13FC2F
:1000C600D8F130F52FC3E49CFCEF9BFFEE9AFEEDD2
:1000D60099FDD0E0FBEF4E4D4C701222DB0302027D
:1000E600D5EC2CFCEF33FFEE33FEED33FDED30E7C0
:1000F600EB0202B0EF2BFFEE3AFEED39FDD0E0FB4E
:1001060050130BBB00030202D8ED13FDEE13FEEFF6
:0801160013FFEC13FC0202B020
:10011E00EC4D6011E8497017ED33EC3304600DE4DB
:10012E00FCFFFEFD22E933E8330470F80202CE1222
:10013E00029958046009E4CC248150062850090223
:10014E0002D82840030202D5C0E0EB4A7044B980C1
:10015E0006D0E0FB0202C4EF4E701CBD8008EBFF20
:10016E00EAFEE9FD80EBE98DF0A4FEE5F002020760
:10017E00E9CDF9EAFEEBFFEF89F0A4FCE5F0CE89BC
:10018E00F0A42EFFE435F0CD89F0A42DFEE435F079
:10019E008067EF4E7005BD80D780C3EF8BF0A4ACA7
:1001AE00F0EE8BF0A42CFCE435F0F8EF8AF0A42CE2
:1001BE00E5F038FCE433CB8DF0A42CFCE5F03BF8F5
:1001CE00EE8AF0A42CFCE5F038F8E433CF89F0A4E5
:1001DE002CFCE5F038CF3400CE89F0A42FFFE5F0EB
:1001EE003EFEE433C98DF0A42EFEE5F039CD8AF043
:1001FE00A42FFFE5F03EFEE43DFD33D0E0FB5007BB
:10020E000BBB000F0202D8EC2CFCEF33FFEE33FEDB
:06021E00ED33FD0202B009
:1002240075F020800E75F010800575F0087D007E55
:10023400007F003392D530D503120390EC33401085
:10024400EF33FFEE33FEED33FDEC33FCD5F0ED225E
:0E025400E5F0247EA2D513CC92E7CDCEFF229A
:10026200EDD2E7CD33EC3392D524814006E4FFFE94
:10027200FDFC22FCE4CFCECDCC24E0501174FF80F3
:10028200EDC3CC13CCCD13CDCE13CECF13CF047090
:07029200F030D5DE020390FD
:10029900E9D2E7C933E833F892D5EDD2E7CD33ECAB
:0702A90033FC5002B2D52224
:1002B000EC30E7100FBF000C0EBE00080DBD0004AF
:1002C0000BEB6014A2D5EB13FCED92E7FD2274FF5B
:1002D000FCFDFEFF22E480F8A2D574FF13FC7D80B4
:0302E000E480EFC8
:03000000020EA647
:0C0EA600787FE4F6D8FD75814902046CE9
:1002E300BB010689828A83E0225002E722BBFE0219
:0902F300E32289828A83E493224C
:1002FC00BB010CE58229F582E5833AF583E02250B7
:10030C0006E92582F8E622BBFE06E92582F8E22200
:0D031C00E58229F582E5833AF583E493221A
:10032900EF8DF0A4A8F0CF8CF0A428CE8DF0A42EE8
:02033900FE22A2
:10033B00BC000BBE0029EF8DF084FFADF022E4CCA6
:10034B00F875F008EF2FFFEE33FEEC33FCEE9DEC6F
:10035B00984005FCEE9DFE0FD5F0E9E4CEFD22EDB5
:10036B00F8F5F0EE8420D21CFEADF075F008EF2FFF
:10037B00FFED33FD4007985006D5F0F222C398FDF0
:05038B000FD5F0EA228D
:100AFE00C2D5E830E70FB2D5E4C39BFBE49AFAE423
:100B0E0099F9E498F8EC30E717B2D5120B341203CA
:100B1E00DAE4C39BFBE49AFAE499F9E498F88003CB
:100B2E001203DA30D50DE4C39FFFE49EFEE49DFD73
:040B3E00E49CFC2215
:0E039000C3E49FFFE49EFEE49DFDE49CFC227E
:10039E0075F008758200EF2FFFEE33FECD33CDCC16
:1003AE0033CCC58233C5829BED9AEC99E582984099
:1003BE000CF582EE9BFEED9AFDEC99FC0FD5F0D676
:1003CE00E4CEFBE4CDFAE4CCF9A88222B800C1B9A0
:1003DE000059BA002DEC8BF084CFCECDFCE5F0CBDE
:1003EE00F97818EF2FFFEE33FEED33FDEC33FCEB17
:1003FE0033FB10D703994004EB99FB0FD8E5E4F9D2
:10040E00FA227818EF2FFFEE33FEED33FDEC33FCBE
:10041E00C933C910D7059BE99A4007EC9BFCE99AB2
:10042E00F90FD8E0E4C9FAE4CCFB2275F010EF2FF7
:10043E00FFEE33FEED33FDCC33CCC833C810D707F7
:10044E009BEC9AE899400AED9BFDEC9AFCE899F832
:0E045E000FD5F0DAE4CDFBE4CCFAE4C8F922C5
:00000001FF
