:100A5A00526573756C743A005365743A0048697349
:100A6A00746F72793A00426C7565746F6F746800BE
:100A7A00202020002020202057656C636F6D65219F
:100A8A00202020202020507265737320746F205319
:100A9A00544152540020202020202020202020537E
:070AAA00656E64696E6700D0
:0F0E4E00C118C119C11A01340001350001240077
:100464001208A3200A030205177A0A795A120C0704
:10047400120650C20A7B007A007939E4FD120C0B93
:10048400D3E531952EE530952D400FC297C2967F66
:10049400E87E03120C43D297D2960527E527B409C8
:1004A40003752701AD27E4FF120DBEAE30AF317CDA
:1004B400037DE8120333AD07E52775F003A4240494
:1004C400FF120DBEAE30AF317C037DE81203337EE4
:1004D400007F64CFCDCFCECCCE120333AD07E5275A
:1004E40075F003A42405FF120DBEAE30AF317C00BD
:1004F4007D641203337E007F0ACFCDCFCECCCE12E3
:100504000333AD07E52775F003A42406FF120DBEDF
:10051400020467300B7A200F33E5362430F539E5D1
:10052400372430F53AE5382430F53C753B2E753DDB
:1005340043E4F53E7BFF7A0A79627D01120C0B7B62
:10054400007A007939E4FD120C0BD20F300E1E052F
:1005540038E538B40A050537E4F538AD387F0312B9
:100564000DBEAD377F02120DBEC20FC20E200003B6
:10057400020467D538051537753809AD387F03127D
:100584000DBEAD377F02120DBEC20FC2000204675A
:10059400200C03020467200D0302062CE52F7003D0
:1005A400752F08E52F120C61EF2430F539E52F750E
:1005B400F003A42405FF120C68EF2430F53AE52F6C
:1005C40075F003A42406FF120C68EF2430F53C7583
:1005D4003B2E753D43E4F53EE52FD39527500BC3E1
:1005E400E527952F2431F5288009C3E527952F2485
:1005F40039F528152F7BFF7A0A79677D01120C0BD8
:100604007B007A007939E4FD120C0B753920753AB8
:1006140020753B20753C2085283DE4F53EFB7A009F
:100624007939FD120C0BC20D200103020467A201EB
:1006340082B040FA120DA3A201B01940FA12077F4A
:0C0644007F887E13120C43D296020467DC
:10077F00852711E4F510E510C39408505CE511B41A
:10078F000903751101E511120C61EF2430F539E5FC
:10079F001175F003A42405FF120C68EF2430F53A0D
:1007AF00E51175F003A42406FF120C68EF2430F551
:1007BF003C753B2E753D43753E20E5102431F53FCA
:1007CF0075400D75410AE4F542FB7A0079397D0ACF
:1007DF00120BCF05100511809D120C037BFF7A0AB7
:1007EF00797AE4FD120C0B75394F753A4B753B2135
:1007FF00E4F53CFB7A0079397D04120BCF7B007A4C
:08080F00007939E4FD020C0B35
:0300030002098C63
:10098C00C0E0C0F0C083C082C0D075D000C000C031
:10099C0001C002C003C004C005C006C0077F647E4E
:1009AC0000120C4320B226300C08D20BC20FC20C22
:1009BC00801B300B11C20BC20C7BFF7A0A797E7D37
:1009CC0001120C0B8007D20C85272FD20DD007D02B
:1009DC0006D005D004D003D002D001D000D0D0D0A6
:0809EC0082D083D0F0D0E0328C
:03001300020AB12D
:100AB100C0E0C0F0C083C082C0D075D000C000C00B
:100AC10001C002C003C004C005C006C0077F647E28
:100AD10000120C4320B310300C04D20D8009300BEE
:100AE10004D20E8002D20AD007D006D005D004D09D
:100AF10003D002D001D000D0D0D082D083D0F0D0AA
:020B0100E032E0
:03001B00020922B5
:10092200C0E0C0F0C083C082C0D075D000C000C09B
:1009320001C002C003C004C005C006C0077F647EB8
:1009420000120C4320B528300C203001147BFF7AB2
:100952000A799FE4FD120C0BC20185272FD20D806C
:100962000ED201C296120C038005300B02D200D0C7
:1009720007D006D005D004D003D002D001D000D0D9
:0A098200D0D082D083D0F0D0E03254
:1008A300D2A8D288D2AAD28AD2AFC20AC20CC20DAF
:1008B300C20EC20F7F807E25120D8753890F438995
:1008C30060758DFF758BFFD2ABD28E120E097F013F
:1008D300120C688F367F02120C688F377F03120C5D
:1008E300688F38AF367E007C037DE8120321AC06A7
:1008F300AD07E53775F064A42DFDEC35F0FCE53864
:1009030075F00AA4AEF02DF52EEE3CF52DE4FF12A2
:0F0913000C688F277BFF7A0A797E7D01020C0B1F
:10065000E4F530F531120E2EE4F510120B03EF2500
:1006600031F531EE3530F5300510E510C3940A4010
:10067000EA7F0A7E00120C43AE30AF317C037DE886
:10068000120333AC06AD07E41202218F2C8E2B8DA2
:100690002A8C29A804A905AA06AB07120116AB2CBF
:1006A000AA2BA92AA8291201167B527A49799D788A
:1006B000BA120116C004C005C006C0077F8E7E06B0
:1006C0007D307C3EAB2CAA2BA92AA829120116AB9F
:1006D0002CAA2BA92AA829120116D003D002D001D6
:1006E000D0001200257B667A6679FB7842120025DD
:1006F000C004C005C006C0077F6C7E267DE27C403A
:10070000AB2CAA2BA92AA829120116A804A905AA6C
:1007100006AB07D007D006D005D004120021E4FBB9
:10072000FA79C8784212011612025A8E308F317C43
:10073000037DE8120333EF2430F539AE30AF317C5E
:10074000037DE81203337E007F64CFCDCFCECCCEC5
:10075000120333EF2430F53A753B2EAE30AF317CC7
:10076000007D641203337E007F0ACFCDCFCECCCE86
:0E077000120333EF2430F53C753D43E4F53EB3
:01077E002258
:0D0C36007F017E00120C43D2937F017E00EF
:100C4300D3EF9400EE940040147D7D7C00ED1D7085
:0D0C5300011CED4C70F7EF1F70E61E80E3F2
:010C60002271
:100E2E00D293D29400000000C293120C3FD29322B0
:100D6A00D2940000000000D2930000000000C29458
:0D0D7A000000000000C293000000000022F5
:100DF100C2930000000000C2940000000000D293E2
:080E01000000000000D2942261
:020B90008F11C3
:100B920075130A851114E4F512E51430E704D2093D
:100BA2008002C209120CF0E51425E0F5140512C307
:100BB200E5126480948840E1120D2E30080E120D69
:0C0BC200F1E51360071513120D6A80C7DF
:010BCE002204
:100CF000200904C2948002D29400D2930000000024
:0F0D000000000000C2930000000000000000226D
:100C8B00E4F512F511E51225E0F512120D2E3008E0
:100C9B000205120511E511C3940840E9120CF0AFDF
:010CAB001236
:010CAC002225
:100D2E00D294D208D2930000000000000000A294DA
:0E0D3E00920800C29300000000000000002296
:100B0300120D6A7FB4120B907F07120B90120D6ABD
:100B13007F01120B90C209120C8B8F26C209120C93
:100B23008B8F25D209120C8B8F32120DF1E525FE26
:100B33007C00E42526FFEC3EFEEF25E0FFEE33FECE
:090B4300EF244DFFEE3495FE2273
:080BCF008B128A1389148D15A5
:100BD700E4F516E516C395155021AB12AA13A9140F
:100BE7008516827583001202F4FF120E3E301AFD3D
:0B0BF7007F327E00120C43051680D8F0
:010C020022CF
:100D87005389F0438902AB07AA06E4F9F8FF7E10FE
:0C0D97007D0EFC120B4CEFF404F58C22D6
:100DA300AF8CC3E49FFF74019400C313EF13F404E7
:0B0DB300F58AD2A9D28CC219C2182206
:100E3E008F35858C8AD2A9D28CC2B1C21AD2182211
:03000B000209F4F3
:0409F400C0E0C0D0CF
:1009F8003018280524E524D39408500DE5351392C2
:100A0800B1E535C313F5358044E524B40904D2B102
:100A1800803B752400C28CD21A8032E524700D20E8
:100A2800B006F53405248025C28C8021E524D394B2
:100A3800085010E534C313F53430B003433480054F
:0D0A480024800A752400C28C30B002D2193F
:050A5500D0D0D0E0321A
:100E1D008F15120DD88515A0C292C291D290C29095
:010E2D0022A2
:100E09007F01120E1D7F0C120E1D7F06120E1D7F13
:040E190038020E1D70
:100DD800753380E53330E71075A0FFC292D291D207
:090DE8009085A033C29080EB223B
:100D4C00120DD8E533B4100B75A0C0C292C291D26B
:0E0D5C0090C2908FA0D292C291D290C29022EB
:080C03007A0A79707BFF7D0184
:100C0B008B128A138914ED60057F01120E1DAB1236
:100C1B00AA13A9141202DBFF6010120D4C740125EC
:0B0C2B0014F514E43513F51380E422E7
:0D0E6C00D294120C36C294120C3FC2932295
:0E0E5E00C294120C36D2947F017E00020C4327
:080CCF00120E6C7FA0120CADA7
:100CD700120C3D30940BE512C394FF5004051280AB
:080CE700F2C293120C3FD294FB
:010CEF0022E2
:100CAD008F22E4FBA2179294120C3DE52225E0F56C
:100CBD0022C293120C3F0BBB08EAD294120C3FC216
:010CCD009393
:010CCE002203
:100D0F00D294E4F522FBE52225E0F522120C3DA258
:0E0D1F00949210C293120C3F0BBB08EAAF2255
:010D2D0022A3
:100DBE00AA05A907120CCFAF01120CAD120CD7AFBA
:0A0DCE0002120CAD120CD7020E5EEB
:070C610075F003A42404FF59
:020C6800AA07D9
:100C6A00120CCFAF02120CAD120CD7120E6C7FA170
:100C7A00120CAD120CD7120D0FAB07120E5EAF039A
:010C8A002247
:10001E000202C6E86480F8E933E83360110460F048
:10002E00ED33EC337009E8FCE9FDEAFEEBFF220448
:10003E0060DED3EB9FEA9EE99DE8C2E78CF0C2F743
:10004E0095F0400CE8CCF8E9CDF9EACEFAEBCFFB0F
:10005E0012029185D0F05804700320D5B3E80470D5
:10006E00075002B2D50202D092D5EC0460F7E4CC70
:10007E00C0E0C398F8603B94186008400DD0E0FBD8
:10008E000202A8E4FBFAC9FC8028E830E406E4C9C1
:10009E00FBE4CAFCE830E305E4C9CACBFCE854072C
:1000AE006010F8C3E913F9EA13FAEB13FBEC13FC37
:1000BE00D8F130F52FC3E49CFCEF9BFFEE9AFEEDDA
:1000CE0099FDD0E0FBEF4E4D4C701222DB03020285
:1000DE00CDEC2CFCEF33FFEE33FEED33FDED30E7D0
:1000EE00EB0202A8EF2BFFEE3AFEED39FDD0E0FB5E
:1000FE0050130BBB00030202D0ED13FDEE13FEEF07
:08010E0013FFEC13FC0202A830
:10011600EC4D6011E8497017ED33EC3304600DE4E3
:10012600FCFFFEFD22E933E8330470F80202C61232
:10013600029158046009E4CC248150062850090233
:1001460002D02840030202CDC0E0EB4A7044B980D9
:1001560006D0E0FB0202BCEF4E701CBD8008EBFF30
:10016600EAFEE9FD80EBE98DF0A4FEE5F00201FF71
:10017600E9CDF9EAFEEBFFEF89F0A4FCE5F0CE89C4
:10018600F0A42EFFE435F0CD89F0A42DFEE435F081
:100196008067EF4E7005BD80D780C3EF8BF0A4ACAF
:1001A600F0EE8BF0A42CFCE435F0F8EF8AF0A42CEA
:1001B600E5F038FCE433CB8DF0A42CFCE5F03BF8FD
:1001C600EE8AF0A42CFCE5F038F8E433CF89F0A4ED
:1001D6002CFCE5F038CF3400CE89F0A42FFFE5F0F3
:1001E6003EFEE433C98DF0A42EFEE5F039CD8AF04B
:1001F600A42FFFE5F03EFEE43DFD33D0E0FB5007C3
:100206000BBB000F0202D0EC2CFCEF33FFEE33FEEB
:06021600ED33FD0202A819
:10021C0075F020800E75F010800575F0087D007E5D
:10022C00007F003392D530D503120388EC33401095
:10023C00EF33FFEE33FEED33FDEC33FCD5F0ED2266
:0E024C00E5F0247EA2D513CC92E7CDCEFF22A2
:10025A00EDD2E7CD33EC3392D524814006E4FFFE9C
:10026A00FDFC22FCE4CFCECDCC24E0501174FF80FB
:10027A00EDC3CC13CCCD13CDCE13CECF13CF047098
:07028A00F030D5DE0203880D
:10029100E9D2E7C933E833F892D5EDD2E7CD33ECB3
:0702A10033FC5002B2D5222C
:1002A800EC30E7100FBF000C0EBE00080DBD0004B7
:1002B8000BEB6014A2D5EB13FCED92E7FD2274FF63
:1002C800FCFDFEFF22E480F8A2D574FF13FC7D80BC
:0302D800E480EFD0
:03000000020817DC
:0C081700787FE4F6D8FD75814202085E8F
:1002DB00BB010689828A83E0225002E722BBFE0221
:0902EB00E32289828A83E4932254
:1002F400BB010CE58229F582E5833AF583E02250BF
:1003040006E92582F8E622BBFE06E92582F8E22208
:0D031400E58229F582E5833AF583E4932222
:10032100EF8DF0A4A8F0CF8CF0A428CE8DF0A42EF0
:02033100FE22AA
:10033300BC000BBE0029EF8DF084FFADF022E4CCAE
:10034300F875F008EF2FFFEE33FEEC33FCEE9DEC77
:10035300984005FCEE9DFE0FD5F0E9E4CEFD22EDBD
:10036300F8F5F0EE8420D21CFEADF075F008EF2F07
:10037300FFED33FD4007985006D5F0F222C398FDF8
:050383000FD5F0EA2295
:100B4C00C2D5E830E70FB2D5E4C39BFBE49AFAE4D4
:100B5C0099F9E498F8EC30E717B2D5120B8212032E
:100B6C00D2E4C39BFBE49AFAE499F9E498F8800385
:100B7C001203D230D50DE4C39FFFE49EFEE49DFD2D
:040B8C00E49CFC22C7
:0E038800C3E49FFFE49EFEE49DFDE49CFC2286
:10082300020464E493A3F8E493A34003F68001F283
:1008330008DFF48029E493A3F85407240CC8C333D6
:10084300C4540F4420C8834004F456800146F6DFA5
:10085300E4800B0102040810204080900E4EE47ED9
:10086300019360BCA3FF543F30E509541FFEE4939A
:10087300A360010ECF54C025E060A840B8E493A361
:10088300FAE493A3F8E493A3C8C582C8CAC583CA8C
:10089300F0A3C8C582C8CAC583CADFE9DEE780BE44
:010E5D000094
:1003960075F008758200EF2FFFEE33FECD33CDCC1E
:1003A60033CCC58233C5829BED9AEC99E5829840A1
:1003B6000CF582EE9BFEED9AFDEC99FC0FD5F0D67E
:1003C600E4CEFBE4CDFAE4CCF9A88222B800C1B9A8
:1003D6000059BA002DEC8BF084CFCECDFCE5F0CBE6
:1003E600F97818EF2FFFEE33FEED33FDEC33FCEB1F
:1003F60033FB10D703994004EB99FB0FD8E5E4F9DA
:10040600FA227818EF2FFFEE33FEED33FDEC33FCC6
:10041600C933C910D7059BE99A4007EC9BFCE99ABA
:10042600F90FD8E0E4C9FAE4CCFB2275F010EF2FFF
:10043600FFEE33FEED33FDCC33CCC833C810D707FF
:100446009BEC9AE899400AED9BFDEC9AFCE899F83A
:0E0456000FD5F0DAE4CDFBE4CCFAE4C8F922CD
:00000001FF
