:100026002020526573756C743A00526573756C7452
:100036003A002020202020202045766E3A200045D8
:10004600766E3A002020205365743A005365743A60
:100056000020486973746F72793A20004869737496
:100066006F72793A002020200020200020202042B4
:100076006C7565746F6F7468204100426C756574A9
:100086006F6F746820410053656E64696E672E2E2B
:100096002E002020202020202053656E64696E6784
:1000A6002E2E2E00202020426C7565746F6F7468AA
:1000B6002020202020202020202020204F4B2100FF
:1000C6004F4B210057656C636F6D65212020507280
:1000D60065737320746F2053544152540057656CF6
:1000E600636F6D652100507265737320746F2053C2
:1000F6005441525400202020426C7565746F6F7411
:1001060068204200426C7565746F6F746820420007
:10011600437265617465204279204A696D6D792064
:1001260020202020323032312E372E3235004372D5
:1001360065617465204279204A696D6D79003230B7
:1001460032312E372E3236004E616D653A20004E22
:10015600616D653A008040301E101010FF101010BF
:100166001010100000404042424242427F4242424A
:100176004242404000008060F807001CE001060093
:10018600E01E000000010000FF00804020130C1359
:1001960020408080004030119690909196909098E3
:1001A6001413503000040404040444847E06050439
:1001B600040404040000FE225A86100C242425267A
:1001C6002424140C0000FF0408078041310F0101AC
:1001D6003F414171000000000000000000000000E7
:1001E6000000000000000000000000000000000009
:1001F60000000000001060028C20180808887F8824
:10020600082818080004047E018040300C03003FD3
:100216004040407000102C2424A4A465A624242465
:1002260024A4340C0040494929241452897F040A25
:1002360011102020000000E09C848484F4828283D4
:100246008280800000002010080640807F000002A7
:10025600040830000000000000000000000000005C
:100266000000000000000000F80000000000000090
:10027600333000000000100C06100C0600000000D1
:10028600000000000040C07840C0784000043F04F1
:10029600043F040400007088FC08300000001820A9
:1002A600FF211E0000F008F000E018000000211CED
:1002B600031E211E0000F00888700000001E212386
:1002C600241927211010160E00000000000000005F
:1002D6000000000000000000E0180402000000001A
:1002E600071820400000020418E00000000040202B
:1002F6001807000000404080F080404000020201E4
:100306000F01020200000000F000000000010101E0
:100316001F01010100000000000000000080B07015
:1003260000000000000000000000000000000101C5
:100336000101010101000000000000000000303052
:100346000000000000000000008060180400601833
:10035600060100000000E010080810E000000F1081
:100366002020100F00001010F800000000002020D0
:100376003F20200000007008080888700000302820
:1003860024222130000030088888483000001820D8
:100396002020110E000000C02010F8000000070405
:1003A60024243F240000F808888808080000192142
:1003B6002020110E0000E0108888180000000F11A0
:1003C6002020110E0000380808C838080000000078
:1003D6003F000000000070880808887000001C229A
:1003E6002121221C0000E010080810E00000003166
:1003F6002222110F00000000C0C000000000000013
:100406003030000000000000800000000000008086
:10041600600000000000008040201008000001027B
:1004260004081020004040404040404000040404BE
:10043600040404040000081020408000000020107E
:100446000804020100007048080808F000000000D7
:100456003036010000C030C828E810E00007182731
:100466002423140B000000C038E0000000203C23C9
:10047600020227382008F8888888700000203F206C
:100486002020110E00C03008080808380007182080
:10049600202010080008F808080810E000203F2077
:1004A6002020100F0008F88888E8081000203F2058
:1004B600202320180008F88888E8081000203F202C
:1004C6000003000000C030080808380000071820A4
:1004D60020221E020008F808000008F808203F2124
:1004E6000101213F20000808F8080800000020202C
:1004F6003F2020000000000808F8080800C080809F
:10050600807F00000008F888C028180800203F20D7
:10051600012638200008F8080000000000203F20CF
:10052600202020300008F8F800F8F80800203F00E6
:100536003F003F200008F830C00008F808203F20A0
:100546000007183F00E01008080810E0000F102010
:100556002020100F0008F808080808F000203F21A6
:100566000101010000E01008080810E0000F18243F
:100576002438504F0008F8888888887000203F206B
:1005860000030C3020007088080808380000382066
:100596002121221C00180808F8080818000000206D
:1005A6003F2000000008F808000008F808001F2097
:1005B6002020201F000878880000C838080000079F
:1005C600380E010000F80800F80008F800033C07A0
:1005D60000073C0300081868808068180820302C43
:1005E60003032C30200838C800C838080000002053
:1005F6003F2000000010080808C8380800203826E8
:100606002120201800000000FE0202020000000067
:100616007F40404000000C30C00000000000000099
:10062600010638C00000020202FE00000000404041
:10063600407F0000000000040202020400000000E7
:100646000000000000000000000000000080808024
:10065600808080808000020204000000000000000C
:100666000000000000000080808080000000192447
:100676002222223F2008F8008080000000003F115F
:100686002020110E000000008080800000000E1166
:100696002020201100000000808088F800000E1144
:1006A6002020103F200000808080800000001F2254
:1006B6002222221300008080F088888818002020DB
:1006C6003F202000000000808080808000006B9426
:1006D600949493600008F8008080800000203F21F9
:1006E6000000203F20008098980000000000202095
:1006F6003F20200000000000809898000000C08085
:1007060080807F000008F8000080808000203F2461
:10071600022D302000000808F8000000000020200C
:100726003F202000008080808080808000203F2045
:10073600003F20003F8080008080800000203F2115
:100746000000203F200000808080800000001F20E5
:100756002020201F00808000808000000080FFA1F4
:100766002020110E000000008080808000000E1105
:100776002020A0FF80808080008080800020203F95
:10078600212000010000008080808080000033244A
:100796002424241900008080E080800000000000EE
:1007A6001F202000008080000000808000001F20A5
:1007B6002020103F20808080000080808000010E75
:1007C600300806010080800080008080800F300C99
:1007D600030C300F000080800080808000002031F4
:1007E6002E0E312000808080000080808080818EE7
:1007F6007018060100008080808080800000213013
:100806002C22213000000404745454555654545478
:100816007404040000080808090949897D0D0B09BC
:10082600080808080080642C3424242C3222223242
:100836002E23A2600080804143252911111129250C
:1008460043408080001060028C00FE02F202FE002F
:10085600F800FF000004047E018047300F102700D7
:1008660047807F00001060028C0000FE92929292F8
:1008760092FE00000004047E01407E42427E427EDB
:1008860042427E400000F80C0B0808F840308F0802
:100896000808F80000007F212121217F0000004385
:1008A60080403F000000E000FF1020080808FF0815
:1008B60008F8000000010000FF008141310D030D22
:1008C60031418181000000E09C848484F48282832B
:1008D6008280800000002010080640807F00000211
:1008E600040830000012EAAFAAEA0FFA02888C5711
:1008F60024548C84000202EAAAAAABAAABAAAAAA2A
:10090600AAEA020200101010FF109000FE828282F6
:1009160092A29E00000444827F010000FF80432CC7
:10092600102C438000404042CC009090909090FF65
:1009360010111610000000003F1028603F10100133
:100946000E3040F0002030AC63300000FE22222240
:1009560022FE000000226722121240407F424242DD
:10096600427F404000404020205048444344485085
:100976002020404000000000FE42424242424242E5
:10098600FE000000004030EF242480E49C10545404
:10099600FF547C100001017F21512618274445454C
:1009A6005F4545440040445464457E4444447E4586
:1009B6006454444000000000FF49494949494949F7
:1009C600FF000000004042CC0000E2222A2AF22A60
:1009D6002622E0000080403F4080FF898989BF8948
:1009E600A9C9BF80001010D0FF9014E4AFA4A4A43E
:1009F600AFE4040000040300FF00894B2A1A0E1A14
:100A06002A4B888000101090909090901010FF1044
:100A16001011161000002060203F10101000030C6B
:100A2600102040F8000000FC0444840425C6040499
:100A36000404E4040040300F4040414E40406350FF
:100A46004C4340400020108C874C542414284744C3
:100A56008C94040400010100FC4545454545454587
:100A6600FC00010100000202C2020202FE82828232
:100A760082820200004040407F4040407F4040402C
:100A86004040404000201808EAACA8A8AFA8A8AC8F
:100A9600EA0828180000003E02020202FF020212C3
:050AA600221E0000000B
:0400160002280000BC
:0D1CB8007F017E00121CC5D2937F017E00CB
:101CC500D3EF9400EE940040147D7D7C00ED1D70F3
:0D1CD500011CED4C70F7EF1F70E61E80E360
:011CE20022DF
:091FED00D293D294C294C2932253
:091FF600C293C294D293D294224A
:071D6000AD07121FED7F78B3
:101D6700E4FEEF30E704D2948002C294D293C29388
:0E1D7700EF25E0FF0EBE08EAD294D293C2938D
:011D8500223B
:0D1EC700740B2BF58274083AF583E493FF49
:101ED400121D607F40121D67AF05121D67021FF6B9
:0D1EE40024B0FF121EF17F01121EF17F10CD
:101EF100121D60E4FF121D67AF05121D67021FF678
:101E6D00AC07ED24B0FF121EF1EC54F0C4540F4436
:0E1E7D0010FF121EF1EC540F4401FF021EF183
:021F5100AC07DB
:101F5300E4FBEB121EE4E4FAAF04121ED40ABA80C7
:051F6300F70BBB08EDC7
:011F68002256
:101F8100E4FCEC121EE4E4FBE4FF121ED40BBB8064
:051F9100F70CBC08ED97
:011F96002228
:061AE1008C5D8D5EA9077B
:101AE700E4FCEBAE027805C333CE33CED8F9FBAABC
:101AF70006AF01AD5E121E6DE4FCEB90015B93FF38
:101B0700121ED40BBB00010A0CBC10EEAF01E55E40
:101B170004FD121E6DE4FCEB90015B93FF121ED4D3
:091B27000BBB00010A0CBC10EE1E
:011B30002292
:081B31007D027A007C007F10A8
:061B39008C6F8D70A907FE
:101B3F00E4FCEBAE027805C333CE33CED8F9FBAA63
:101B4F0006AF01AD70121E6DE4FC121EC70BBB0079
:101B5F00010A0CBC10F4AF01E57004FD121E6DE418
:0D1B6F00FC121EC70BBB00010A0CBC10F4D9
:011B7C002246
:1017B3007FF47E01121CC57FAE121EF1E4FF121EE0
:1017C300EC7F40121EF17F81121EF17FCF121EF1BA
:1017D3007FA1121EF17FC8121EF17FA6121EF17F98
:1017E300A8121EF17F3F121EF17FD3121EF1E4FFF8
:1017F300121EF17FD5121EF17F80121EF17FD912C6
:101803001EF17FF1121EF17FDA121EF17F12121EFA
:10181300F17FDB121EF17F40121EF17F20121EF1B9
:101823007F02121EF17F8D121EF17F14121EF17FB3
:10183300A4121EF17FA6121EF17FAF121EF1E4FF68
:09184300121F51E4FDFF021E6DAD
:0A15DC007BFF7A0079C67C00E4FF73
:0C15E6008F6F8C708D718B728A7389740A
:1015F200E4F575FCF576AB72AA73A97485768275EB
:101602008300120D81607324E0F575E56FD3947841
:10161200400BE4F56F0571E57170020570AD71AFB5
:101622006F121E6DE4FC75F010E575A42CF582E4D2
:1016320035F0F583E582245BF582E5833402121EE0
:10164200CF0CBC08E1E57104FDAF6F121E6DE4FC26
:1016520075F010E575A42CF582E435F0F583E5828A
:101662002463F582E5833402121ECF0CBC08E174B8
:0A16720008256FF56F05760215F8E4
:01167C00224B
:101D8600121951300A0512107F80F8300B05121215
:101D9600EB80F0300C05120F0780E83002E5121ACE
:031DA6008E80E04C
:10107F007BFF7A0079267D01121C8D121F817BFF69
:10108F007A007930E4FDFCFF1215E61211BC12173D
:10109F0018C20A7B007A007949E4FD121C8D7B008F
:1010AF007A007949E4FDFC7F381215E67BFF7A0060
:1010BF007938E4FD121C8D7BFF7A0079457D021291
:1010CF0015E27B007A0079357D027C007F201215B6
:1010DF00E67B007A007935E4FD121C8DD3E532955D
:1010EF002FE531952E4020C297C2967FE87E0312DE
:1010FF001CC5D297D2967B077A007D047C00E4FF53
:10110F00121B397B08800F7B137A007D047C00E46F
:10111F00FF121B397B147D04121B330525E525B403
:10112F000903752501AD25E4FF121F1EAE31AF3245
:10113F007C037DE8120DC0AD07E52575F003A424EF
:10114F0004FF121F1EAE31AF327C037DE8120DC0BB
:10115F007E007F64CFCDCFCECCCE120DC0AD07E5D4
:10116F002575F003A42405FF121F1EAE31AF327C8C
:10117F00007D64120DC07E007F0ACFCDCFCECCCEC6
:10118F00120DC0AD07E52575F003A42406FF121F4D
:10119F001EE52575F008A42430FF7B007A00793F07
:0D11AF00121C497FD07E07121CC50219C713
:1012EB00300F03021372E53C2430F549E53D243001
:1012FB00F54AE53E2430F54C754B2E754D43E4F520
:10130B004E7BFF7A00794A7D01121C8D7B007A009F
:10131B007949E4FD121C8D121F817BFF7A007952F3
:10132B00E4FDFCFF1215E67B007A007949E4FDFC35
:10133B007F201215E6D20F7B097A007D047C00E436
:10134B00FF121B39E4F56EE56EC454F02410FFE573
:10135B006E2409FBE433FA7D047C00121B39056E05
:10136B00E56EC3940440E0300E48053EE53EB40AFA
:10137B0005053DE4F53EAD3E7F03121F1EAD3D7FDF
:10138B0002121F1EAF3C7E007C037DE8120DAEAC3B
:10139B0006AD07E53D75F064A42DFDEC35F0FCE5DD
:1013AB003E75F00AA4AEF02DF52FEE3CF52EC20FD4
:1013BB00C20E300047E53E7005153D753E0A153EE1
:1013CB00AD3E7F03121F1EAD3D7F02121F1EAF3CB1
:1013DB007E007C037DE8120DAEAC06AD07E53D75D6
:1013EB00F064A42DFDEC35F0FCE53E75F00AA4AEDF
:0C13FB00F02DF52FEE3CF52EC20FC200C5
:0114070022C2
:100F0700200D03020FE8E5307003753008E5301255
:100F17001D0EEF2430F549E53075F003A42405FFD5
:100F2700121D15EF2430F54AE53075F003A42406A9
:100F3700FF121D15EF2430F54C754B2E754D43E40C
:100F4700F54EE530D39525500BC3E5259530243173
:100F5700F5268009C3E52595302439F5267BFF7AE8
:100F67000079577D01121C8D121F817BFF7A007952
:100F770062E4FDFCFF1215E6E530121E0E7B007AD7
:100F8700007949E4FD121C8D7B007A007949E4FD64
:100F9700FC7F401215E67BFF7A00796BE4FD121C9B
:100FA7008DE4F527FB7A007926FD121C8D7B007AEC
:100FB7000079267D021215E27BFF7A00796FE4FD46
:100FC700121C8D7B007A00793F7D027C007F18120E
:100FD70015E67B007A00793FE4FD121C8DC20D15E2
:100FE7003020010302107E121F817BFF121C877BBA
:100FF700FF7A007981E4FDFCFF1215E67B0D7A008C
:101007007D027C00E4FF121B397B0E121B317B0F24
:101017007A007D027C007F20121B397B107A007DCD
:10102700027C007F30121B393001032003FA3001A4
:101037003CC201D2037BFF7A00798D7D041215E251
:101047007BFF7A007998E4FD121C8D12167D7BFFD9
:101057007A0079AA7D01121C8D7D061215DCC297D4
:101067007FF47E01121CC5D297D2A8D2AAD29612BB
:071077001FAB852530D20DEF
:01107E00224F
:101A8E00121CE33002477B007A0079497FE0121C7A
:101A9E0049C2027FE0121E157B007A00793FE4FDF9
:101AAE00121C8D7B007A00793FE4FDFC7F28121515
:101ABE00E67FCC121FBE7BFF7A0079C6E4FD121CB6
:101ACE008D7D021215DC7FD07E07121CC5121FAB56
:031ADE000219C723
:10167D00C2A8C2AA85256FE4F56EE56EC394085025
:10168D0076E56F7003756F08E56F121D0EEF243050
:10169D00F549E56F75F003A42405FF121D15EF2420
:1016AD0030F54AE56F75F003A42406FF121D15EF02
:1016BD002430F54C754B2E754D43754E20E56E243B
:1016CD0031F54F755020E4F551FB7A007949121A26
:1016DD002CE56F121E0E7B007A00793F121A2C75C5
:1016ED00490D754A0AE4F54BFB7A007949121A2C1B
:1016FD00056E156F02168775494F754A4B754B214F
:0B170D00E4F54CFB7A007949021A2C2D
:1019C700121F817FE0121E157B007A00793F7D018F
:1019D700121C8D7B007A00793FE4FDFCFF1215E6AF
:1019E7007F88121FBE7BFF7A0079CAE4FD121C8D27
:1019F7007BFF7A0079E37D021215E27BFF7A00799B
:101A0700EC7D041215E2E4F56EE56EC454F0FFE5D3
:101A17006EFB7A007D067C00121B39056EE56EC3EE
:041A2700940740E5FB
:011A2B002298
:101FAB00C2AC53890F438960758DFF758BFFD2AB24
:031FBB00D28E22A1
:10195100D2A8D288D2AAD28AD2AFC20AC20CC20DF0
:10196100C20EC20FC202C201C200C20AC20BC2959C
:10197100D203C204121FAB121F971217B37F0112B9
:101981001D158F3C7F02121D158F3D7F03121D1502
:101991008F3EAF3C7E007C037DE8120DAEAC06AD00
:1019A10007E53D75F064A42DFDEC35F0FCE53E75D1
:1019B100F00AA4AEF02DF52FEE3CF52EE4FF121D3A
:0619C100158F250219C775
:030003000214F6EE
:1014F600C0E0C0F0C083C082C0D075D000C000C0BC
:1015060001C002C003C004C005C006C0077F647ED8
:1015160000121CC530B2030215C1200C030215A728
:1015260030017620B56FB204121F817BFF200421A3
:10153600121C877BFF7A007981E4FDFCFF1215E619
:101546007B0D7A007D027C00E4FF121B397B0E8046
:10155600257A0079FB7D01121C8D7BFF7A01790AC1
:10156600E4FDFCFF1215E67B117A007D027C00E4A7
:10157600FF121B397B12121B317B0F7A007D027C16
:10158600007F20121B397B107A007D027C007F30A1
:10159600121B398026C2018022D20BC20FC20C80D8
:1015A6001A300B09C20BC20C1219C7800E30020486
:1015B600C2028007D20C852530D20DD007D006D0C6
:1015C60005D004D003D002D001D000D0D0D082D034
:0615D60083D0F0D0E032EA
:03001300021408CC
:10140800C0E0C0F0C083C082C0D075D000C000C0AA
:0D14180001C002C003C004C005C006C0072B
:101425007F647E00121CC530B3030214DB300C0D43
:10143500300105C2030214DBD20D0214DB200B03BD
:101445000214D220B2307D037F01121F1E7D077F5B
:1014550002121F1E7D067F03121F1E7F01121D151E
:101465008F3C7F02121D158F3D7F03121D158F3E88
:10147500D20EC20F806020B5507BFF7A0179167DB0
:1014850001121C8D121F817BFF7A017934E4FDFC6A
:10149500FF1215E67BFF7A0179447D021215E2758C
:1014A5005C00E55CC454F0FFE55CFB7A007D067CDE
:1014B50000121AE1055CE55CC3940840E57F887E6F
:1014C50013121CC5121951800DD20E800930020469
:0614D500C2028002D20AEF
:1014DB00D007D006D005D004D003D002D001D00065
:0B14EB00D0D0D082D083D0F0D0E0320F
:03001B000218D8F0
:1018D800C0E0C0F0C083C082C0D075D000C000C0D6
:1018E80001C002C003C004C005C006C0077F647EF3
:1018F80000121CC520B537300C09200131D201C2B5
:10190800968024300B04D2008024D202121F817BDF
:10191800FF7A01794E7D01121C8D7BFF7A01795582
:10192800E4FDFCFF1215E67F807E25121D38D007E6
:10193800D006D005D004D003D002D001D000D0D03A
:09194800D082D083D0F0D0E0324F
:1011BC00E4F531F532121FCFE4F56E121B7DEF25ED
:1011CC0032F532EE3531F531056EE56EC3940A40D9
:1011DC00EA7F0A7E00121CC5AE31AF327C037DE87B
:1011EC00120DC0AC06AD07E4120CAE8F2D8E2C8DFB
:1011FC002B8C2AA804A905AA06AB07120BA3AB2DAE
:10120C00AA2CA92BA82A120BA37B527A49799D7878
:10121C00BA120BA3C004C005C006C0077F8E7E06A1
:10122C007D307C3EAB2DAA2CA92BA82A120BA3AB8C
:10123C002DAA2CA92BA82A120BA3D003D002D001C3
:10124C00D000120AB27B667A6679FB7842120AB237
:10125C00C004C005C006C0077F6C7E267DE27C40C2
:10126C00AB2DAA2CA92BA82A120BA3A804A905AA5A
:10127C0006AB07D007D006D005D004120AAEE4FBAB
:10128C00FA79C87842120BA3120CE78E318F327C9C
:10129C00037DE8120DC0EF2430F549AE31AF327C3E
:1012AC00037DE8120DC07E007F64CFCDCFCECCCEB7
:1012BC00120DC0EF2430F54A754B2EAE31AF327C97
:1012CC00007D64120DC07E007F0ACFCDCFCECCCE78
:0E12DC00120DC0EF2430F54C754D43E4F54E75
:0112EA0022E1
:101B7D00121F017FB4121C0A7F07121C0A121F01CB
:101B8D007F01121C0AC209121DA98F24C209121D40
:101B9D00A98F23D209121DA98F33121F69E523FEC8
:101BAD007C00E42524FFEC3EFEEF25E0FFEE33FE46
:091BBD00EF244DFFEE3495FE22E9
:10171800121F017FB4121C0A7F06121C0A121F0135
:101728007F01121C0AC209121DA98F24C209121DA9
:10173800A98F23D209121DA98F33121F69E523FE31
:101748007C00E42524FFEC3EFEEF25E0FFEE33FEAF
:10175800EF244DFFEE3495AB07FA7C037DE8FE12CB
:101768000DC0EF2430F5357C037DE8AF03AE0212DF
:101778000DC07E007F64CFCDCFCECCCE120DC0EF92
:101788002430F53675372EAE02AF037C007D641227
:101798000DC07E007F0ACFCDCFCECCCE120DC0EFCC
:0A17A8002430F538753943E4F53AB2
:0117B2002214
:101FCF00D293D29400000000C293121CC1D293226C
:101F0100D2940000000000D2930000000000C294AF
:0D1F11000000000000C2930000000000224C
:101F6900C2930000000000C2940000000000D29358
:081F79000000000000D29422D8
:021C0A008F6FDA
:101C0C0075710A856F72E4F570E57230E704D209DC
:101C1C008002C209121E2FE57225E0F5720570C311
:101C2C00E5706480948840E1121E8B30080E121F00
:0C1C3C0069E57160071571121F0180C777
:011C48002279
:101E2F00200904C2948002D29400D29300000000D3
:0F1E3F0000000000C2930000000000000000221D
:101DA900E4F570F56FE57025E0F570121E8B3008CB
:101DB900020570056FE56FC3940840E9121E2FAF45
:011DC90070A9
:011DCA0022F6
:101E8B00D294D208D2930000000000000000A2946C
:0E1E9B00920800C29300000000000000002228
:061A2C008B708A718972C3
:101A3200E4F573AB70AA71A9728573827583001283
:101A42000D816047C299AB70AA71A97285738275C4
:101A52008300120D81F5997F327E00121CC530047D
:101A620026E4F528F52920981C0529E529700205A8
:101A720028AE28FFE4FCFD7B507AC3F9F8C3120EAE
:0B1A82002350E380C1C298057380A8C8
:011A8D002236
:101CE300E4FF30021F2098032002FA30021C85997A
:101CF30048C298E5486440600BAE070F74492EF85C
:0A1D0300A64880DE74492FF8E4F6CC
:011D0D0022B3
:101D380075985053890F438920AB07AA06E4F9F830
:101D48007F807E70FDFC121BC6EFF404F58D858D37
:081D58008BC2ABD2ACD28E228B
:0300230002001EBA
:01001E0032AF
:101FBE008F72121F388572A0C292C291D290C290B7
:011FCE0022F0
:101F97007F01121FBE7F0C121FBE7F06121FBE7F5E
:041FA70038021FBE1F
:101F3800753480E53430E71075A0FFC292D291D293
:091F48009085A034C29080EB22C8
:101EA900121F38E534B4100B75A0C0C292C291D28A
:0E1EB90090C2908FA0D292C291D290C290227D
:061C87007A0079727D0174
:101C8D008B6F8A708971ED60057F01121FBEAB6F7E
:101C9D00AA70A971120D68FF6010121EA97401259A
:0B1CAD0071F571E43570F57080E422E1
:081DED001200067FA0121DCBBD
:101DF500121CBF30940BE573C394FF500405738028
:081E0500F2C293121CC1D29439
:011E0D0022B2
:0D000600D294121CB8C294121CC1C29322E5
:0E1FDF00C294121CB8D2947F017E00021CC571
:101DCB008F22E4FBA2179294121CBFE52225E0F5AB
:101DDB0022C293121CC10BBB08EAD294121CC1C2C3
:011DEB009364
:011DEC0022D4
:101E4E00D294E4F522FBE52225E0F522121CBFA276
:0E1E5E00949210C293121CC10BBB08EAAF2273
:011E6C002253
:101F1E00AA05A907121DEDAF01121DCB121DF5AFBB
:0A1F2E0002121DCB121DF5021FDF89
:071D0E0075F003A42404FF9B
:021D1500AA071B
:101D1700121DEDAF02121DCB121DF51200067FA199
:101D2700121DCB121DF5121E4EAB07121FDFAF039C
:011D37002289
:071E0E0075F008A42430FF69
:021E15008F70CC
:101E1700E4F9E57029FF121D15743F29F8A6070993
:071E2700743E29F8E670EBA0
:011E2E002291
:081C49008F6E8B6F8A708971A8
:101C5100E4F572E56E2572FFAB6FAA70A97185720A
:101C610082758300120D81FD121F1E05727E0074A4
:101C7100FF2572F582EE34FFF583AB6FAA70A9716F
:051C8100120D8170CE80
:011C8600223B
:100AAB00020D53E86480F8E933E83360110460F019
:100ABB00ED33EC337009E8FCE9FDEAFEEBFF2204B1
:100ACB0060DED3EB9FEA9EE99DE8C2E78CF0C2F7AC
:100ADB0095F0400CE8CCF8E9CDF9EACEFAEBCFFB78
:100AEB00120D1E85D0F05804700320D5B3E80470A6
:100AFB00075002B2D5020D5D92D5EC0460F7E4CC41
:100B0B00C0E0C398F8603B94186008400DD0E0FB40
:100B1B00020D35E4FBFAC9FC8028E830E406E4C991
:100B2B00FBE4CAFCE830E305E4C9CACBFCE8540794
:100B3B006010F8C3E913F9EA13FAEB13FBEC13FC9F
:100B4B00D8F130F52FC3E49CFCEF9BFFEE9AFEED42
:100B5B0099FDD0E0FBEF4E4D4C701222DB03020DE2
:100B6B005AEC2CFCEF33FFEE33FEED33FDED30E7AB
:100B7B00EB020D35EF2BFFEE3AFEED39FDD0E0FB2E
:100B8B0050130BBB0003020D5DED13FDEE13FEEFD7
:080B9B0013FFEC13FC020D3501
:100BA300EC4D6011E8497017ED33EC3304600DE44C
:100BB300FCFFFEFD22E933E8330470F8020D531203
:100BC3000D1E58046009E4CC248150062850090204
:100BD3000D5D284003020D5AC0E0EB4A7044B98012
:100BE30006D0E0FB020D49EF4E701CBD8008EBFF01
:100BF300EAFEE9FD80EBE98DF0A4FEE5F0020C8C42
:100C0300E9CDF9EAFEEBFFEF89F0A4FCE5F0CE892C
:100C1300F0A42EFFE435F0CD89F0A42DFEE435F0E9
:100C23008067EF4E7005BD80D780C3EF8BF0A4AC17
:100C3300F0EE8BF0A42CFCE435F0F8EF8AF0A42C52
:100C4300E5F038FCE433CB8DF0A42CFCE5F03BF865
:100C5300EE8AF0A42CFCE5F038F8E433CF89F0A455
:100C63002CFCE5F038CF3400CE89F0A42FFFE5F05B
:100C73003EFEE433C98DF0A42EFEE5F039CD8AF0B3
:100C8300A42FFFE5F03EFEE43DFD33D0E0FB50072B
:100C93000BBB000F020D5DEC2CFCEF33FFEE33FEBC
:060CA300ED33FD020D35EA
:100CA90075F020800E75F010800575F0087D007EC6
:100CB900007F003392D530D503120E15EC33401066
:100CC900EF33FFEE33FEED33FDEC33FCD5F0ED22CF
:0E0CD900E5F0247EA2D513CC92E7CDCEFF220B
:100CE700EDD2E7CD33EC3392D524814006E4FFFE05
:100CF700FDFC22FCE4CFCECDCC24E0501174FF8064
:100D0700EDC3CC13CCCD13CDCE13CECF13CF047000
:070D1700F030D5DE020E15DD
:100D1E00E9D2E7C933E833F892D5EDD2E7CD33EC1B
:070D2E0033FC5002B2D52294
:100D3500EC30E7100FBF000C0EBE00080DBD00041F
:100D45000BEB6014A2D5EB13FCED92E7FD2274FFCB
:100D5500FCFDFEFF22E480F8A2D574FF13FC7D8024
:030D6500E480EF38
:0300000002184C97
:0C184C00787FE4F6D8FD758176021893D1
:100D6800BB010689828A83E0225002E722BBFE0289
:090D7800E32289828A83E49322BC
:100D8100BB010CE58229F582E5833AF583E0225027
:100D910006E92582F8E622BBFE06E92582F8E22271
:0D0DA100E58229F582E5833AF583E493228B
:100DAE00EF8DF0A4A8F0CF8CF0A428CE8DF0A42E59
:020DBE00FE2213
:100DC000BC000BBE0029EF8DF084FFADF022E4CC17
:100DD000F875F008EF2FFFEE33FEEC33FCEE9DECE0
:100DE000984005FCEE9DFE0FD5F0E9E4CEFD22ED26
:100DF000F8F5F0EE8420D21CFEADF075F008EF2F70
:100E0000FFED33FD4007985006D5F0F222C398FD60
:050E10000FD5F0EA22FD
:101BC600C2D5E830E70FB2D5E4C39BFBE49AFAE44A
:101BD60099F9E498F8EC30E717B2D5121BFC120E0F
:101BE60075E4C39BFBE49AFAE499F9E498F8800358
:101BF600120E7530D50DE4C39FFFE49EFEE49DFDF5
:041C0600E49CFC223C
:0E0E1500C3E49FFFE49EFEE49DFDE49CFC22EE
:100E2300EB9FF5F0EA9E42F0E99D42F0EC6480C846
:060E330064809845F022E6
:10185800021D86E493A3F8E493A34003F68001F203
:1018680008DFF48029E493A3F85407240CC8C33391
:10187800C4540F4420C8834004F456800146F6DF60
:10188800E4800B0102040810204080900016E47EDA
:10189800019360BCA3FF543F30E509541FFEE49355
:1018A800A360010ECF54C025E060A840B8E493A31C
:1018B800FAE493A3F8E493A3C8C582C8CAC583CA47
:1018C800F0A3C8C582C8CAC583CADFE9DEE780BEFF
:01001A0000E5
:100E390075F008758200EF2FFFEE33FECD33CDCC70
:100E490033CCC58233C5829BED9AEC99E5829840F3
:100E59000CF582EE9BFEED9AFDEC99FC0FD5F0D6D0
:100E6900E4CEFBE4CDFAE4CCF9A88222B800C1B9FA
:100E79000059BA002DEC8BF084CFCECDFCE5F0CB38
:100E8900F97818EF2FFFEE33FEED33FDEC33FCEB71
:100E990033FB10D703994004EB99FB0FD8E5E4F92C
:100EA900FA227818EF2FFFEE33FEED33FDEC33FC19
:100EB900C933C910D7059BE99A4007EC9BFCE99A0D
:100EC900F90FD8E0E4C9FAE4CCFB2275F010EF2F52
:100ED900FFEE33FEED33FDCC33CCC833C810D70752
:100EE9009BEC9AE899400AED9BFDEC9AFCE899F88D
:0E0EF9000FD5F0DAE4CDFBE4CCFAE4C8F92220
:00000001FF
